:100000000C9434000C9451000C9451000C94510049
:100010000C9451000C9451000C9451000C9451001C
:100020000C9451000C9451000C9451000C9451000C
:100030000C9451000C9451000C9451000C945100FC
:100040000C9451000C9451000C9451000C945100EC
:100050000C9451000C9451000C9451000C945100DC
:100060000C9451000C94510011241FBECFEFD8E026
:10007000DEBFCDBF11E0A0E0B1E0E2EDF1E002C0F3
:1000800005900D92A031B107D9F721E0A0E1B1E0D0
:1000900001C01D92A831B207E1F70E94C4000C9480
:1000A000E7000C940000CF93C82F8A3051F0809164
:1000B000C00085FFFCCFC093C60080E090E0CF91E8
:1000C000089560E070E08DE00E945300F0CF109240
:1000D000C50089E18093C4001092C00088E180933C
:1000E000C10086E08093C20082E091E09093150108
:1000F0008093140108958091C00087FFFCCF809108
:10010000C600089584B5886084BD84B58E7F84BDA3
:1001100084B58D7F84BD85B5856085BD16BC80EFB7
:1001200087BD0895E0EBF0E08081836C8083E1EB94
:10013000F0E08081836080831092B2008FEF809323
:10014000B30008958091100190911101892B61F005
:1001500080911001909111018F3F910529F08091BC
:100160000001909101010895809100019091010199
:10017000919581959109909301018093000180915F
:100180000001909101010895239A0E9492000E941B
:100190008200C8E085B18C2785B986B58111FACF78
:1001A0002091100130911101809100019091010185
:1001B000820F931F90931101809310010E94A2005F
:1001C00080911001909111018093B300E3CFF894D6
:0201D000FFCF5F
:1001D20001000000000200000000530000000000C7
:00000001FF
